{
  "contractName": "EtherLockBox",
  "abi": [
    {
      "constant": false,
      "inputs": [
        {
          "internalType": "bytes",
          "name": "lockBoxId",
          "type": "bytes"
        },
        {
          "internalType": "bytes",
          "name": "hints",
          "type": "bytes"
        },
        {
          "internalType": "bytes",
          "name": "answers",
          "type": "bytes"
        },
        {
          "internalType": "uint8",
          "name": "numAnswersRequired",
          "type": "uint8"
        },
        {
          "internalType": "uint256",
          "name": "unlockingPeriod",
          "type": "uint256"
        },
        {
          "internalType": "bool",
          "name": "breakableOnceUnlocked",
          "type": "bool"
        }
      ],
      "name": "createLockBox",
      "outputs": [],
      "payable": true,
      "stateMutability": "payable",
      "type": "function"
    },
    {
      "constant": true,
      "inputs": [
        {
          "internalType": "bytes",
          "name": "lockBoxId",
          "type": "bytes"
        }
      ],
      "name": "getLockBox",
      "outputs": [
        {
          "internalType": "uint256",
          "name": "createdAt",
          "type": "uint256"
        },
        {
          "internalType": "address",
          "name": "owner",
          "type": "address"
        },
        {
          "internalType": "address",
          "name": "redeemableBy",
          "type": "address"
        },
        {
          "internalType": "uint256",
          "name": "unlockedAt",
          "type": "uint256"
        },
        {
          "internalType": "uint256",
          "name": "unlockingPeriod",
          "type": "uint256"
        },
        {
          "internalType": "uint256",
          "name": "value",
          "type": "uint256"
        },
        {
          "internalType": "bytes",
          "name": "hints",
          "type": "bytes"
        },
        {
          "internalType": "bytes",
          "name": "answers",
          "type": "bytes"
        },
        {
          "internalType": "uint8",
          "name": "numAnswersRequired",
          "type": "uint8"
        },
        {
          "internalType": "bool",
          "name": "breakableOnceUnlocked",
          "type": "bool"
        }
      ],
      "payable": false,
      "stateMutability": "view",
      "type": "function"
    },
    {
      "constant": false,
      "inputs": [
        {
          "internalType": "bytes",
          "name": "lockBoxId",
          "type": "bytes"
        }
      ],
      "name": "addValue",
      "outputs": [],
      "payable": true,
      "stateMutability": "payable",
      "type": "function"
    },
    {
      "constant": false,
      "inputs": [
        {
          "internalType": "bytes",
          "name": "lockBoxId",
          "type": "bytes"
        },
        {
          "internalType": "address payable",
          "name": "to",
          "type": "address"
        },
        {
          "internalType": "uint256",
          "name": "amount",
          "type": "uint256"
        }
      ],
      "name": "breakLockBox",
      "outputs": [],
      "payable": false,
      "stateMutability": "nonpayable",
      "type": "function"
    },
    {
      "constant": false,
      "inputs": [
        {
          "internalType": "bytes",
          "name": "lockBoxId",
          "type": "bytes"
        },
        {
          "internalType": "bytes",
          "name": "answers",
          "type": "bytes"
        }
      ],
      "name": "unlockLockBox",
      "outputs": [],
      "payable": false,
      "stateMutability": "nonpayable",
      "type": "function"
    },
    {
      "constant": false,
      "inputs": [
        {
          "internalType": "bytes",
          "name": "lockBoxId",
          "type": "bytes"
        },
        {
          "internalType": "address payable",
          "name": "to",
          "type": "address"
        },
        {
          "internalType": "uint256",
          "name": "amount",
          "type": "uint256"
        }
      ],
      "name": "redeemLockBox",
      "outputs": [],
      "payable": false,
      "stateMutability": "nonpayable",
      "type": "function"
    }
  ],
  "bytecode": "0x608060405234801561001057600080fd5b50611a42806100206000396000f3fe6080604052600436106100555760003560e01c806360119b721461005a5780636ddffe081461014c578063bc9f5c59146102ab578063c6737f10146104b7578063d237e261146105a9578063f8891056146107f0575b600080fd5b34801561006657600080fd5b5061014a6004803603606081101561007d57600080fd5b810190808035906020019064010000000081111561009a57600080fd5b8201836020820111156100ac57600080fd5b803590602001918460018302840111640100000000831117156100ce57600080fd5b91908080601f016020809104026020016040519081016040528093929190818152602001838380828437600081840152601f19601f820116905080830192505050505050509192919290803573ffffffffffffffffffffffffffffffffffffffff169060200190929190803590602001909291905050506108ab565b005b34801561015857600080fd5b506102a96004803603604081101561016f57600080fd5b810190808035906020019064010000000081111561018c57600080fd5b82018360208201111561019e57600080fd5b803590602001918460018302840111640100000000831117156101c057600080fd5b91908080601f016020809104026020016040519081016040528093929190818152602001838380828437600081840152601f19601f8201169050808301925050505050505091929192908035906020019064010000000081111561022357600080fd5b82018360208201111561023557600080fd5b8035906020019184600183028401116401000000008311171561025757600080fd5b91908080601f016020809104026020016040519081016040528093929190818152602001838380828437600081840152601f19601f820116905080830192505050505050509192919290505050610b8c565b005b6104b5600480360360c08110156102c157600080fd5b81019080803590602001906401000000008111156102de57600080fd5b8201836020820111156102f057600080fd5b8035906020019184600183028401116401000000008311171561031257600080fd5b91908080601f016020809104026020016040519081016040528093929190818152602001838380828437600081840152601f19601f8201169050808301925050505050505091929192908035906020019064010000000081111561037557600080fd5b82018360208201111561038757600080fd5b803590602001918460018302840111640100000000831117156103a957600080fd5b91908080601f016020809104026020016040519081016040528093929190818152602001838380828437600081840152601f19601f8201169050808301925050505050505091929192908035906020019064010000000081111561040c57600080fd5b82018360208201111561041e57600080fd5b8035906020019184600183028401116401000000008311171561044057600080fd5b91908080601f016020809104026020016040519081016040528093929190818152602001838380828437600081840152601f19601f820116905080830192505050505050509192919290803560ff16906020019092919080359060200190929190803515159060200190929190505050610ef0565b005b3480156104c357600080fd5b506105a7600480360360608110156104da57600080fd5b81019080803590602001906401000000008111156104f757600080fd5b82018360208201111561050957600080fd5b8035906020019184600183028401116401000000008311171561052b57600080fd5b91908080601f016020809104026020016040519081016040528093929190818152602001838380828437600081840152601f19601f820116905080830192505050505050509192919290803573ffffffffffffffffffffffffffffffffffffffff1690602001909291908035906020019092919050505061108b565b005b3480156105b557600080fd5b5061066f600480360360208110156105cc57600080fd5b81019080803590602001906401000000008111156105e957600080fd5b8201836020820111156105fb57600080fd5b8035906020019184600183028401116401000000008311171561061d57600080fd5b91908080601f016020809104026020016040519081016040528093929190818152602001838380828437600081840152601f19601f8201169050808301925050505050505091929192905050506113cf565b604051808b81526020018a73ffffffffffffffffffffffffffffffffffffffff1673ffffffffffffffffffffffffffffffffffffffff1681526020018973ffffffffffffffffffffffffffffffffffffffff1673ffffffffffffffffffffffffffffffffffffffff16815260200188815260200187815260200186815260200180602001806020018560ff1660ff16815260200184151515158152602001838103835287818151815260200191508051906020019080838360005b8381101561074557808201518184015260208101905061072a565b50505050905090810190601f1680156107725780820380516001836020036101000a031916815260200191505b50838103825286818151815260200191508051906020019080838360005b838110156107ab578082015181840152602081019050610790565b50505050905090810190601f1680156107d85780820380516001836020036101000a031916815260200191505b509c5050505050505050505050505060405180910390f35b6108a96004803603602081101561080657600080fd5b810190808035906020019064010000000081111561082357600080fd5b82018360208201111561083557600080fd5b8035906020019184600183028401116401000000008311171561085757600080fd5b91908080601f016020809104026020016040519081016040528093929190818152602001838380828437600081840152601f19601f82011690508083019250505050505050919291929050505061162e565b005b600080846040518082805190602001908083835b602083106108e257805182526020820191506020810190506020830392506108bf565b6001836020036101000a038019825116818451168082178552505050505050905001915050908152602001604051809103902090506000816000015411610991576040517f08c379a00000000000000000000000000000000000000000000000000000000081526004018080602001828103825260168152602001807f6c6f636b426f7820646f6573206e6f742065786973740000000000000000000081525060200191505060405180910390fd5b3373ffffffffffffffffffffffffffffffffffffffff168160020160009054906101000a900473ffffffffffffffffffffffffffffffffffffffff1673ffffffffffffffffffffffffffffffffffffffff1614610a39576040517f08c379a000000000000000000000000000000000000000000000000000000000815260040180806020018281038252602a81526020018061191c602a913960400191505060405180910390fd5b4381600301541115610ab3576040517f08c379a000000000000000000000000000000000000000000000000000000000815260040180806020018281038252601c8152602001807f74686973206c6f636b626f78206973207374696c6c206c6f636b65640000000081525060200191505060405180910390fd5b8060050154821115610b2d576040517f08c379a000000000000000000000000000000000000000000000000000000000815260040180806020018281038252601b8152602001807f6e6f7420656e6f7567682076616c756520696e206c6f636b626f78000000000081525060200191505060405180910390fd5b8181600501600082825403925050819055508273ffffffffffffffffffffffffffffffffffffffff166108fc839081150290604051600060405180830381858888f19350505050158015610b85573d6000803e3d6000fd5b5050505050565b600080836040518082805190602001908083835b60208310610bc35780518252602082019150602081019050602083039250610ba0565b6001836020036101000a03801982511681845116808217855250505050505090500191505090815260200160405180910390209050600080846040518082805190602001908083835b60208310610c2f5780518252602082019150602081019050602083039250610c0c565b6001836020036101000a03801982511681845116808217855250505050505090500191505090815260200160405180910390206000015411610cd9576040517f08c379a00000000000000000000000000000000000000000000000000000000081526004018080602001828103825260168152602001807f6c6f636b426f7820646f6573206e6f742065786973740000000000000000000081525060200191505060405180910390fd5b60008090506000610ce984611791565b905060008090505b8160ff168160ff161015610e0c5760006001602083020160ff1690506000610db5866007018054600181600116156101000203166002900480601f016020809104026020016040519081016040528092919081815260200182805460018160011615610100020316600290048015610daa5780601f10610d7f57610100808354040283529160200191610daa565b820191906000526020600020905b815481529060010190602001808311610d8d57829003601f168201915b505050505083611802565b90506000610dc38884611802565b6040516020018082815260200191505060405160208183030381529060405280519060200120905080821415610dfc5785806001019650505b5050508080600101915050610cf1565b508260080160009054906101000a900460ff1660ff16821015610e97576040517f08c379a000000000000000000000000000000000000000000000000000000000815260040180806020018281038252601a8152602001807f4e6f7420656e6f75676820636f727265637420616e737765727300000000000081525060200191505060405180910390fd5b338360020160006101000a81548173ffffffffffffffffffffffffffffffffffffffff021916908373ffffffffffffffffffffffffffffffffffffffff1602179055508260040154430183600301819055505050505050565b600080876040518082805190602001908083835b60208310610f275780518252602082019150602081019050602083039250610f04565b6001836020036101000a038019825116818451168082178552505050505050905001915050908152602001604051809103902090506000816000015414610fb9576040517f08c379a000000000000000000000000000000000000000000000000000000000815260040180806020018281038252602381526020018061196b6023913960400191505060405180910390fd5b438160000181905550338160010160006101000a81548173ffffffffffffffffffffffffffffffffffffffff021916908373ffffffffffffffffffffffffffffffffffffffff16021790555034816005018190555085816006019080519060200190611026929190611876565b508481600701908051906020019061103f929190611876565b50838160080160006101000a81548160ff021916908360ff160217905550828160040181905550818160080160016101000a81548160ff02191690831515021790555050505050505050565b600080846040518082805190602001908083835b602083106110c2578051825260208201915060208101905060208303925061109f565b6001836020036101000a038019825116818451168082178552505050505050905001915050908152602001604051809103902090506000816000015411611171576040517f08c379a00000000000000000000000000000000000000000000000000000000081526004018080602001828103825260168152602001807f6c6f636b426f7820646f6573206e6f742065786973740000000000000000000081525060200191505060405180910390fd5b3373ffffffffffffffffffffffffffffffffffffffff168160010160009054906101000a900473ffffffffffffffffffffffffffffffffffffffff1673ffffffffffffffffffffffffffffffffffffffff1614611219576040517f08c379a000000000000000000000000000000000000000000000000000000000815260040180806020018281038252602281526020018061198e6022913960400191505060405180910390fd5b43816003015411806112a157506000846040518082805190602001908083835b6020831061125c5780518252602082019150602081019050602083039250611239565b6001836020036101000a038019825116818451168082178552505050505050905001915050908152602001604051809103902060080160019054906101000a900460ff165b6112f6576040517f08c379a00000000000000000000000000000000000000000000000000000000081526004018080602001828103825260328152602001806119dc6032913960400191505060405180910390fd5b8181600501541115611370576040517f08c379a000000000000000000000000000000000000000000000000000000000815260040180806020018281038252601b8152602001807f6e6f7420656e6f7567682076616c756520696e206c6f636b626f78000000000081525060200191505060405180910390fd5b8181600501600082825403925050819055508273ffffffffffffffffffffffffffffffffffffffff166108fc839081150290604051600060405180830381858888f193505050501580156113c8573d6000803e3d6000fd5b5050505050565b6000806000806000806060806000806000808c6040518082805190602001908083835b6020831061141557805182526020820191506020810190506020830392506113f2565b6001836020036101000a0380198251168184511680821785525050505050509050019150509081526020016040518091039020905080600001548160010160009054906101000a900473ffffffffffffffffffffffffffffffffffffffff168260020160009054906101000a900473ffffffffffffffffffffffffffffffffffffffff1683600301548460040154856005015486600601876007018860080160009054906101000a900460ff168960080160019054906101000a900460ff16838054600181600116156101000203166002900480601f0160208091040260200160405190810160405280929190818152602001828054600181600116156101000203166002900480156115695780601f1061153e57610100808354040283529160200191611569565b820191906000526020600020905b81548152906001019060200180831161154c57829003601f168201915b50505050509350828054600181600116156101000203166002900480601f0160208091040260200160405190810160405280929190818152602001828054600181600116156101000203166002900480156116055780601f106115da57610100808354040283529160200191611605565b820191906000526020600020905b8154815290600101906020018083116115e857829003601f168201915b505050505092509a509a509a509a509a509a509a509a509a509a50509193959799509193959799565b600080826040518082805190602001908083835b602083106116655780518252602082019150602081019050602083039250611642565b6001836020036101000a03801982511681845116808217855250505050505090500191505090815260200160405180910390209050600080836040518082805190602001908083835b602083106116d157805182526020820191506020810190506020830392506116ae565b6001836020036101000a0380198251168184511680821785525050505050509050019150509081526020016040518091039020600001541161177b576040517f08c379a00000000000000000000000000000000000000000000000000000000081526004018080602001828103825260168152602001807f6c6f636b426f7820646f6573206e6f742065786973740000000000000000000081525060200191505060405180910390fd5b3481600501600082825401925050819055505050565b60006001825110156117ee576040517f08c379a000000000000000000000000000000000000000000000000000000000815260040180806020018281038252602c8152602001806119b0602c913960400191505060405180910390fd5b600080600184010151905080915050919050565b60006020820183511015611861576040517f08c379a00000000000000000000000000000000000000000000000000000000081526004018080602001828103825260258152602001806119466025913960400191505060405180910390fd5b60008260208501015190508091505092915050565b828054600181600116156101000203166002900490600052602060002090601f016020900481019282601f106118b757805160ff19168380011785556118e5565b828001600101855582156118e5579182015b828111156118e45782518255916020019190600101906118c9565b5b5090506118f291906118f6565b5090565b61191891905b808211156119145760008160009055506001016118fc565b5090565b9056fe796f7520617265206e6f7420616c6c6f77656420746f2072656465656d2074686973206c6f636b626f786f7574206f6620626f756e6473207768656e20736c6963696e6720746f20627974657333326c6f636b426f782077697468207468697320696420616c7265616479206578697374736f6e6c7920746865206f776e65722063616e20627265616b2061206c6f636b626f786f7574206f6620626f756e6473207768656e20636f756e74696e672070726f766964656420616e737765727374686973206c6f636b626f782063616e6e6f742062652062726f6b656e20616674657220697420697320756e6c6f636b6564a265627a7a723158207b77fa65a20602265c35bef6bdae044051a0fba41553c3bf87ef7b392ae45ad264736f6c63430005100032",
  "source": "// SPDX-License-Identifier: MIT\npragma solidity >=0.4.21 <=0.7.0;\n\n/// @author Chris Martin\n/// @title A mechanism for locking eth behind m-of-n security questions\ncontract EtherLockBox {\n\n  struct LockBox {\n    uint createdAt;\n    address owner;\n    address redeemableBy;\n    uint unlockedAt;\n    uint unlockingPeriod;\n    uint value;\n    bytes hints;\n    bytes answers;\n    uint8 numAnswersRequired;\n    bool breakableOnceUnlocked;\n  }\n\n  mapping (bytes => LockBox) lockBoxes;\n\n  /// Create a new lockbox\n  /// @param lockBoxId id of the lockbox\n  /// @param hints serialised lockbox hints\n  /// @param answers serialised lockbox answers\n  /// @param numAnswersRequired number of correct answers required to unlock this lockbox\n  /// @param unlockingPeriod number of blocks before redeemer can claim unlocked value\n  /// @dev creates a new lockbox\n  function createLockBox(\n    bytes memory lockBoxId,\n    bytes memory hints,\n    bytes memory answers,\n    uint8 numAnswersRequired,\n    uint unlockingPeriod,\n    bool breakableOnceUnlocked\n  ) public payable {\n    LockBox storage lockBox = lockBoxes[lockBoxId];\n    require(lockBox.createdAt == 0, \"lockBox with this id already exists\");\n    lockBox.createdAt = block.number;\n    lockBox.owner = msg.sender;\n    lockBox.value = msg.value;\n    lockBox.hints = hints;\n    lockBox.answers = answers;\n    lockBox.numAnswersRequired = numAnswersRequired;\n    lockBox.unlockingPeriod = unlockingPeriod;\n    lockBox.breakableOnceUnlocked = breakableOnceUnlocked;\n  }\n\n  /// Get a lockbox by id\n  /// @param lockBoxId id of the lockbox\n  /// @dev creates a new lockbox\n  function getLockBox(bytes memory lockBoxId) public view returns (\n    uint createdAt,\n    address owner,\n    address redeemableBy,\n    uint unlockedAt,\n    uint unlockingPeriod,\n    uint value,\n    bytes memory hints,\n    bytes memory answers,\n    uint8 numAnswersRequired,\n    bool breakableOnceUnlocked\n  ) {\n    LockBox storage lockBox = lockBoxes[lockBoxId];\n    return (\n      lockBox.createdAt,\n      lockBox.owner,\n      lockBox.redeemableBy,\n      lockBox.unlockedAt,\n      lockBox.unlockingPeriod,\n      lockBox.value,\n      lockBox.hints,\n      lockBox.answers,\n      lockBox.numAnswersRequired,\n      lockBox.breakableOnceUnlocked\n    );\n  }\n\n  /// Add value to an existing lockbox\n  /// @param lockBoxId id of the lockbox\n  /// @dev adds the msg value to the value of the lockbox\n  function addValue(bytes memory lockBoxId) public payable {\n    LockBox storage lockBox = lockBoxes[lockBoxId];\n    require(lockBoxes[lockBoxId].createdAt > 0, \"lockBox does not exist\");\n    lockBox.value += msg.value;\n  }\n\n  /// Break the lockbox as the owner, sending the specified value to a chosen address\n  /// @param lockBoxId id of the lockbox\n  /// @param to id of the lockbox\n  /// @param amount amount to deduct from lockbox\n  /// @dev bypass redemption and immediately send the specified value to a chosen address\n  function breakLockBox(bytes memory lockBoxId, address payable to, uint amount) public {\n    LockBox storage lockBox = lockBoxes[lockBoxId];\n    require(lockBox.createdAt > 0, \"lockBox does not exist\");\n    require(lockBox.owner == msg.sender, \"only the owner can break a lockbox\");\n    require(lockBox.unlockedAt > block.number || lockBoxes[lockBoxId].breakableOnceUnlocked, \"this lockbox cannot be broken after it is unlocked\");\n    require(lockBox.value <= amount, \"not enough value in lockbox\");\n    lockBox.value -= amount;\n    to.transfer(amount);\n  }\n\n  /// Unlock the lockbox, setting the msg sender as the redeemer\n  /// @param lockBoxId id of the lockbox\n  /// @param answers serialised solutions to answer hash(s)\n  /// @dev given the correct hash inputs for the answers, sets the sender as the redeemer of the lockbox\n  function unlockLockBox(bytes memory lockBoxId, bytes memory answers) public {\n    LockBox storage lockBox = lockBoxes[lockBoxId];\n    require(lockBoxes[lockBoxId].createdAt > 0, \"lockBox does not exist\");\n    // first byte specifies how many answers there are\n    uint numAnswersCorrect = 0;\n    uint8 numAnswersProvided = bytesToUint8(answers);\n    for (uint8 i = 0; i < numAnswersProvided; i++) {\n      uint byteOffset = i * 32 + 1;\n      bytes32 expectedAnswer = bytesToBytes32(lockBox.answers, byteOffset);\n      bytes32 providedAnswer = keccak256(abi.encodePacked(bytesToBytes32(answers, byteOffset)));\n      if(expectedAnswer == providedAnswer) {\n        numAnswersCorrect++;\n      }\n    }\n    require(numAnswersCorrect >= lockBox.numAnswersRequired, \"Not enough correct answers\");\n    lockBox.redeemableBy = msg.sender;\n    lockBox.unlockedAt = block.number + lockBox.unlockingPeriod;\n  }\n\n  /// Redeem a specified amount from an unlocked lockbox\n  /// @param lockBoxId id of the lockbox\n  /// @param to address to redeem value to\n  /// @param amount amount to redeem from lockbox\n  /// @dev given that the lockbox is redeemable by the msg sender, sends specified amount to specified address\n  function redeemLockBox(bytes memory lockBoxId, address payable to, uint amount) public {\n    LockBox storage lockBox = lockBoxes[lockBoxId];\n    require(lockBox.createdAt > 0, \"lockBox does not exist\");\n    require(lockBox.redeemableBy == msg.sender, \"you are not allowed to redeem this lockbox\");\n    require(lockBox.unlockedAt <= block.number, \"this lockbox is still locked\");\n    require(amount <= lockBox.value, \"not enough value in lockbox\");\n    lockBox.value -= amount;\n    to.transfer(amount);\n  }\n\n  /// util function for converting first byte of byte array to uint8\n  /// @param _bytes byte array to slice\n  /// @dev given a byte array, convert the first element to a uint8 value\n  function bytesToUint8(bytes memory _bytes) internal pure returns (uint8) {\n    require(_bytes.length >= 1, \"out of bounds when counting provided answers\");\n    uint8 tempUint;\n\n    assembly {\n        tempUint := mload(add(add(_bytes, 0x1), 0))\n    }\n\n    return tempUint;\n  }\n\n  /// util function for slicing a bytes array and converting to bytes32\n  /// @param _bytes byte array to slice\n  /// @param _start start index of slice\n  /// @dev given a byte array, convert a slice starting at specified index to bytes32\n  function bytesToBytes32(bytes memory _bytes, uint256 _start) internal pure returns (bytes32) {\n    require(_bytes.length >= (_start + 32), \"out of bounds when slicing to bytes32\");\n    bytes32 tempBytes32;\n\n    assembly {\n        tempBytes32 := mload(add(add(_bytes, 0x20), _start))\n    }\n\n    return tempBytes32;\n  }\n}\n",
  "sourcePath": "/home/chris/crunchy/etherlockbox/contracts/EtherLockBox.sol",
  "compiler": {
    "name": "solc",
    "version": "0.5.16+commit.9c3226ce.Emscripten.clang"
  },
  "schemaVersion": "3.2.3",
  "updatedAt": "2020-08-25T15:03:16.442Z",
  "networkType": "ethereum",
  "devdoc": {
    "author": "Chris Martin",
    "methods": {
      "addValue(bytes)": {
        "details": "adds the msg value to the value of the lockbox",
        "params": {
          "lockBoxId": "id of the lockbox"
        }
      },
      "breakLockBox(bytes,address,uint256)": {
        "details": "bypass redemption and immediately send the specified value to a chosen address",
        "params": {
          "amount": "amount to deduct from lockbox",
          "lockBoxId": "id of the lockbox",
          "to": "id of the lockbox"
        }
      },
      "createLockBox(bytes,bytes,bytes,uint8,uint256,bool)": {
        "details": "creates a new lockbox",
        "params": {
          "answers": "serialised lockbox answers",
          "hints": "serialised lockbox hints",
          "lockBoxId": "id of the lockbox",
          "numAnswersRequired": "number of correct answers required to unlock this lockbox",
          "unlockingPeriod": "number of blocks before redeemer can claim unlocked value"
        }
      },
      "getLockBox(bytes)": {
        "details": "creates a new lockbox",
        "params": {
          "lockBoxId": "id of the lockbox"
        }
      },
      "redeemLockBox(bytes,address,uint256)": {
        "details": "given that the lockbox is redeemable by the msg sender, sends specified amount to specified address",
        "params": {
          "amount": "amount to redeem from lockbox",
          "lockBoxId": "id of the lockbox",
          "to": "address to redeem value to"
        }
      },
      "unlockLockBox(bytes,bytes)": {
        "details": "given the correct hash inputs for the answers, sets the sender as the redeemer of the lockbox",
        "params": {
          "answers": "serialised solutions to answer hash(s)",
          "lockBoxId": "id of the lockbox"
        }
      }
    },
    "title": "A mechanism for locking eth behind m-of-n security questions"
  },
  "userdoc": {
    "methods": {
      "addValue(bytes)": {
        "notice": "Add value to an existing lockbox"
      },
      "breakLockBox(bytes,address,uint256)": {
        "notice": "Break the lockbox as the owner, sending the specified value to a chosen address"
      },
      "createLockBox(bytes,bytes,bytes,uint8,uint256,bool)": {
        "notice": "Create a new lockbox"
      },
      "getLockBox(bytes)": {
        "notice": "Get a lockbox by id"
      },
      "redeemLockBox(bytes,address,uint256)": {
        "notice": "Redeem a specified amount from an unlocked lockbox"
      },
      "unlockLockBox(bytes,bytes)": {
        "notice": "Unlock the lockbox, setting the msg sender as the redeemer"
      }
    }
  }
}