{
  "contractName": "EtherLockBox",
  "abi": [
    {
      "anonymous": false,
      "inputs": [
        {
          "indexed": false,
          "internalType": "bytes",
          "name": "lockBoxId",
          "type": "bytes"
        }
      ],
      "name": "Created",
      "type": "event"
    },
    {
      "anonymous": false,
      "inputs": [
        {
          "indexed": false,
          "internalType": "bytes",
          "name": "lockBoxId",
          "type": "bytes"
        },
        {
          "indexed": false,
          "internalType": "uint256",
          "name": "amount",
          "type": "uint256"
        },
        {
          "indexed": false,
          "internalType": "address",
          "name": "to",
          "type": "address"
        }
      ],
      "name": "Redeemed",
      "type": "event"
    },
    {
      "anonymous": false,
      "inputs": [
        {
          "indexed": false,
          "internalType": "bytes",
          "name": "lockBoxId",
          "type": "bytes"
        },
        {
          "indexed": false,
          "internalType": "uint256",
          "name": "amount",
          "type": "uint256"
        },
        {
          "indexed": false,
          "internalType": "address",
          "name": "to",
          "type": "address"
        }
      ],
      "name": "SpentFrom",
      "type": "event"
    },
    {
      "anonymous": false,
      "inputs": [
        {
          "indexed": false,
          "internalType": "bytes",
          "name": "lockBoxId",
          "type": "bytes"
        }
      ],
      "name": "Unlocked",
      "type": "event"
    },
    {
      "anonymous": false,
      "inputs": [
        {
          "indexed": false,
          "internalType": "bytes",
          "name": "lockBoxId",
          "type": "bytes"
        },
        {
          "indexed": false,
          "internalType": "uint256",
          "name": "amount",
          "type": "uint256"
        }
      ],
      "name": "ValueAdded",
      "type": "event"
    },
    {
      "inputs": [
        {
          "internalType": "bytes",
          "name": "lockBoxId",
          "type": "bytes"
        },
        {
          "internalType": "bytes",
          "name": "hints",
          "type": "bytes"
        },
        {
          "internalType": "bytes",
          "name": "answers",
          "type": "bytes"
        },
        {
          "internalType": "uint8",
          "name": "numAnswersRequired",
          "type": "uint8"
        },
        {
          "internalType": "uint256",
          "name": "unlockingPeriod",
          "type": "uint256"
        },
        {
          "internalType": "bool",
          "name": "spendableOnceUnlocked",
          "type": "bool"
        }
      ],
      "name": "createLockBox",
      "outputs": [],
      "stateMutability": "payable",
      "type": "function",
      "payable": true
    },
    {
      "inputs": [
        {
          "internalType": "bytes",
          "name": "lockBoxId",
          "type": "bytes"
        }
      ],
      "name": "getLockBox",
      "outputs": [
        {
          "internalType": "uint256",
          "name": "createdAt",
          "type": "uint256"
        },
        {
          "internalType": "address",
          "name": "owner",
          "type": "address"
        },
        {
          "internalType": "address",
          "name": "redeemableBy",
          "type": "address"
        },
        {
          "internalType": "uint256",
          "name": "unlockedAt",
          "type": "uint256"
        },
        {
          "internalType": "uint256",
          "name": "unlockingPeriod",
          "type": "uint256"
        },
        {
          "internalType": "uint256",
          "name": "value",
          "type": "uint256"
        },
        {
          "internalType": "bytes",
          "name": "hints",
          "type": "bytes"
        },
        {
          "internalType": "bytes",
          "name": "answers",
          "type": "bytes"
        },
        {
          "internalType": "uint8",
          "name": "numAnswersRequired",
          "type": "uint8"
        },
        {
          "internalType": "bool",
          "name": "spendableOnceUnlocked",
          "type": "bool"
        }
      ],
      "stateMutability": "view",
      "type": "function",
      "constant": true
    },
    {
      "inputs": [],
      "name": "getOwnedLockBoxesCount",
      "outputs": [
        {
          "internalType": "uint256",
          "name": "",
          "type": "uint256"
        }
      ],
      "stateMutability": "view",
      "type": "function",
      "constant": true
    },
    {
      "inputs": [
        {
          "internalType": "uint256",
          "name": "index",
          "type": "uint256"
        }
      ],
      "name": "getOwnedLockBoxId",
      "outputs": [
        {
          "internalType": "bytes",
          "name": "",
          "type": "bytes"
        }
      ],
      "stateMutability": "view",
      "type": "function",
      "constant": true
    },
    {
      "inputs": [
        {
          "internalType": "bytes",
          "name": "lockBoxId",
          "type": "bytes"
        }
      ],
      "name": "addValue",
      "outputs": [],
      "stateMutability": "payable",
      "type": "function",
      "payable": true
    },
    {
      "inputs": [
        {
          "internalType": "bytes",
          "name": "lockBoxId",
          "type": "bytes"
        },
        {
          "internalType": "uint256",
          "name": "amount",
          "type": "uint256"
        },
        {
          "internalType": "address payable",
          "name": "to",
          "type": "address"
        }
      ],
      "name": "spendFromLockBox",
      "outputs": [],
      "stateMutability": "nonpayable",
      "type": "function"
    },
    {
      "inputs": [
        {
          "internalType": "bytes",
          "name": "lockBoxId",
          "type": "bytes"
        },
        {
          "internalType": "bytes",
          "name": "answers",
          "type": "bytes"
        }
      ],
      "name": "unlockLockBox",
      "outputs": [],
      "stateMutability": "nonpayable",
      "type": "function"
    },
    {
      "inputs": [
        {
          "internalType": "bytes",
          "name": "lockBoxId",
          "type": "bytes"
        },
        {
          "internalType": "uint256",
          "name": "amount",
          "type": "uint256"
        },
        {
          "internalType": "address payable",
          "name": "to",
          "type": "address"
        }
      ],
      "name": "redeemLockBox",
      "outputs": [],
      "stateMutability": "nonpayable",
      "type": "function"
    }
  ],
  "bytecode": "0x608060405234801561001057600080fd5b50612483806100206000396000f3fe60806040526004361061007b5760003560e01c8063d237e2611161004e578063d237e261146104ca578063d85818f114610711578063f51d1c9a14610803578063f8891056146108f55761007b565b80631b15ee73146100805780636ddffe0814610134578063a164fcbd14610293578063bc9f5c59146102be575b600080fd5b34801561008c57600080fd5b506100b9600480360360208110156100a357600080fd5b81019080803590602001909291905050506109b0565b6040518080602001828103825283818151815260200191508051906020019080838360005b838110156100f95780820151818401526020810190506100de565b50505050905090810190601f1680156101265780820380516001836020036101000a031916815260200191505b509250505060405180910390f35b34801561014057600080fd5b506102916004803603604081101561015757600080fd5b810190808035906020019064010000000081111561017457600080fd5b82018360208201111561018657600080fd5b803590602001918460018302840111640100000000831117156101a857600080fd5b91908080601f016020809104026020016040519081016040528093929190818152602001838380828437600081840152601f19601f8201169050808301925050505050505091929192908035906020019064010000000081111561020b57600080fd5b82018360208201111561021d57600080fd5b8035906020019184600183028401116401000000008311171561023f57600080fd5b91908080601f016020809104026020016040519081016040528093929190818152602001838380828437600081840152601f19601f820116905080830192505050505050509192919290505050610aa2565b005b34801561029f57600080fd5b506102a861102f565b6040518082815260200191505060405180910390f35b6104c8600480360360c08110156102d457600080fd5b81019080803590602001906401000000008111156102f157600080fd5b82018360208201111561030357600080fd5b8035906020019184600183028401116401000000008311171561032557600080fd5b91908080601f016020809104026020016040519081016040528093929190818152602001838380828437600081840152601f19601f8201169050808301925050505050505091929192908035906020019064010000000081111561038857600080fd5b82018360208201111561039a57600080fd5b803590602001918460018302840111640100000000831117156103bc57600080fd5b91908080601f016020809104026020016040519081016040528093929190818152602001838380828437600081840152601f19601f8201169050808301925050505050505091929192908035906020019064010000000081111561041f57600080fd5b82018360208201111561043157600080fd5b8035906020019184600183028401116401000000008311171561045357600080fd5b91908080601f016020809104026020016040519081016040528093929190818152602001838380828437600081840152601f19601f820116905080830192505050505050509192919290803560ff16906020019092919080359060200190929190803515159060200190929190505050611076565b005b3480156104d657600080fd5b50610590600480360360208110156104ed57600080fd5b810190808035906020019064010000000081111561050a57600080fd5b82018360208201111561051c57600080fd5b8035906020019184600183028401116401000000008311171561053e57600080fd5b91908080601f016020809104026020016040519081016040528093929190818152602001838380828437600081840152601f19601f8201169050808301925050505050505091929192905050506113ae565b604051808b81526020018a73ffffffffffffffffffffffffffffffffffffffff1673ffffffffffffffffffffffffffffffffffffffff1681526020018973ffffffffffffffffffffffffffffffffffffffff1673ffffffffffffffffffffffffffffffffffffffff16815260200188815260200187815260200186815260200180602001806020018560ff1660ff16815260200184151515158152602001838103835287818151815260200191508051906020019080838360005b8381101561066657808201518184015260208101905061064b565b50505050905090810190601f1680156106935780820380516001836020036101000a031916815260200191505b50838103825286818151815260200191508051906020019080838360005b838110156106cc5780820151818401526020810190506106b1565b50505050905090810190601f1680156106f95780820380516001836020036101000a031916815260200191505b509c5050505050505050505050505060405180910390f35b34801561071d57600080fd5b506108016004803603606081101561073457600080fd5b810190808035906020019064010000000081111561075157600080fd5b82018360208201111561076357600080fd5b8035906020019184600183028401116401000000008311171561078557600080fd5b91908080601f016020809104026020016040519081016040528093929190818152602001838380828437600081840152601f19601f82011690508083019250505050505050919291929080359060200190929190803573ffffffffffffffffffffffffffffffffffffffff16906020019092919050505061160d565b005b34801561080f57600080fd5b506108f36004803603606081101561082657600080fd5b810190808035906020019064010000000081111561084357600080fd5b82018360208201111561085557600080fd5b8035906020019184600183028401116401000000008311171561087757600080fd5b91908080601f016020809104026020016040519081016040528093929190818152602001838380828437600081840152601f19601f82011690508083019250505050505050919291929080359060200190929190803573ffffffffffffffffffffffffffffffffffffffff1690602001909291905050506119e3565b005b6109ae6004803603602081101561090b57600080fd5b810190808035906020019064010000000081111561092857600080fd5b82018360208201111561093a57600080fd5b8035906020019184600183028401116401000000008311171561095c57600080fd5b91908080601f016020809104026020016040519081016040528093929190818152602001838380828437600081840152601f19601f820116905080830192505050505050509192919290505050611e22565b005b6060600260003373ffffffffffffffffffffffffffffffffffffffff1673ffffffffffffffffffffffffffffffffffffffff16815260200190815260200160002060008381526020019081526020016000208054600181600116156101000203166002900480601f016020809104026020016040519081016040528092919081815260200182805460018160011615610100020316600290048015610a965780601f10610a6b57610100808354040283529160200191610a96565b820191906000526020600020905b815481529060010190602001808311610a7957829003601f168201915b50505050509050919050565b600080836040518082805190602001908083835b60208310610ad95780518252602082019150602081019050602083039250610ab6565b6001836020036101000a03801982511681845116808217855250505050505090500191505090815260200160405180910390209050600080846040518082805190602001908083835b60208310610b455780518252602082019150602081019050602083039250610b22565b6001836020036101000a03801982511681845116808217855250505050505090500191505090815260200160405180910390206000015411610bef576040517f08c379a00000000000000000000000000000000000000000000000000000000081526004018080602001828103825260168152602001807f6c6f636b426f7820646f6573206e6f742065786973740000000000000000000081525060200191505060405180910390fd5b600080846040518082805190602001908083835b60208310610c265780518252602082019150602081019050602083039250610c03565b6001836020036101000a03801982511681845116808217855250505050505090500191505090815260200160405180910390206003015414610cd0576040517f08c379a000000000000000000000000000000000000000000000000000000000815260040180806020018281038252601b8152602001807f6c6f636b426f7820697320616c726561647920756e6c6f636b6564000000000081525060200191505060405180910390fd5b60008090506000610d7c836007018054600181600116156101000203166002900480601f016020809104026020016040519081016040528092919081815260200182805460018160011615610100020316600290048015610d725780601f10610d4757610100808354040283529160200191610d72565b820191906000526020600020905b815481529060010190602001808311610d5557829003601f168201915b5050505050612036565b905060008090505b8160ff168160ff161015610e9f576000610e43856007018054600181600116156101000203166002900480601f016020809104026020016040519081016040528092919081815260200182805460018160011615610100020316600290048015610e2f5780601f10610e0457610100808354040283529160200191610e2f565b820191906000526020600020905b815481529060010190602001808311610e1257829003601f168201915b50505050506001602085020160ff166120a7565b90506000610e57876020850260ff166120a7565b6040516020018082815260200191505060405160208183030381529060405280519060200120905080821415610e905784806001019550505b50508080600101915050610d84565b508260080160009054906101000a900460ff1660ff16821015610f2a576040517f08c379a000000000000000000000000000000000000000000000000000000000815260040180806020018281038252601a8152602001807f6e6f7420656e6f75676820636f727265637420616e737765727300000000000081525060200191505060405180910390fd5b338360020160006101000a81548173ffffffffffffffffffffffffffffffffffffffff021916908373ffffffffffffffffffffffffffffffffffffffff160217905550610f8483600401544361211b90919063ffffffff16565b83600301819055507fcfa3150947573722f8644f36de98c66db593e00ee30451f26f7bb0bc7bee2786856040518080602001828103825283818151815260200191508051906020019080838360005b83811015610fee578082015181840152602081019050610fd3565b50505050905090810190601f16801561101b5780820380516001836020036101000a031916815260200191505b509250505060405180910390a15050505050565b6000600160003373ffffffffffffffffffffffffffffffffffffffff1673ffffffffffffffffffffffffffffffffffffffff16815260200190815260200160002054905090565b600080876040518082805190602001908083835b602083106110ad578051825260208201915060208101905060208303925061108a565b6001836020036101000a03801982511681845116808217855250505050505090500191505090815260200160405180910390209050600081600001541461113f576040517f08c379a00000000000000000000000000000000000000000000000000000000081526004018080602001828103825260238152602001806123786023913960400191505060405180910390fd5b438160000181905550338160010160006101000a81548173ffffffffffffffffffffffffffffffffffffffff021916908373ffffffffffffffffffffffffffffffffffffffff160217905550348160050181905550858160060190805190602001906111ac9291906122ad565b50848160070190805190602001906111c59291906122ad565b50838160080160006101000a81548160ff021916908360ff160217905550828160040181905550818160080160016101000a81548160ff0219169083151502179055506000600160003373ffffffffffffffffffffffffffffffffffffffff1673ffffffffffffffffffffffffffffffffffffffff16815260200190815260200160002054905087600260003373ffffffffffffffffffffffffffffffffffffffff1673ffffffffffffffffffffffffffffffffffffffff168152602001908152602001600020600083815260200190815260200160002090805190602001906112b09291906122ad565b506112c560018261211b90919063ffffffff16565b600160003373ffffffffffffffffffffffffffffffffffffffff1673ffffffffffffffffffffffffffffffffffffffff168152602001908152602001600020819055507f3b4a808d54c495ced21b3f493818c8c5a90f41e600c8b12208571402dcd23cec886040518080602001828103825283818151815260200191508051906020019080838360005b8381101561136a57808201518184015260208101905061134f565b50505050905090810190601f1680156113975780820380516001836020036101000a031916815260200191505b509250505060405180910390a15050505050505050565b6000806000806000806060806000806000808c6040518082805190602001908083835b602083106113f457805182526020820191506020810190506020830392506113d1565b6001836020036101000a0380198251168184511680821785525050505050509050019150509081526020016040518091039020905080600001548160010160009054906101000a900473ffffffffffffffffffffffffffffffffffffffff168260020160009054906101000a900473ffffffffffffffffffffffffffffffffffffffff1683600301548460040154856005015486600601876007018860080160009054906101000a900460ff168960080160019054906101000a900460ff16838054600181600116156101000203166002900480601f0160208091040260200160405190810160405280929190818152602001828054600181600116156101000203166002900480156115485780601f1061151d57610100808354040283529160200191611548565b820191906000526020600020905b81548152906001019060200180831161152b57829003601f168201915b50505050509350828054600181600116156101000203166002900480601f0160208091040260200160405190810160405280929190818152602001828054600181600116156101000203166002900480156115e45780601f106115b9576101008083540402835291602001916115e4565b820191906000526020600020905b8154815290600101906020018083116115c757829003601f168201915b505050505092509a509a509a509a509a509a509a509a509a509a50509193959799509193959799565b600080846040518082805190602001908083835b602083106116445780518252602082019150602081019050602083039250611621565b6001836020036101000a0380198251168184511680821785525050505050509050019150509081526020016040518091039020905060008160000154116116f3576040517f08c379a00000000000000000000000000000000000000000000000000000000081526004018080602001828103825260168152602001807f6c6f636b426f7820646f6573206e6f742065786973740000000000000000000081525060200191505060405180910390fd5b6000816003015411801561170b575043816003015411155b61177d576040517f08c379a000000000000000000000000000000000000000000000000000000000815260040180806020018281038252601c8152602001807f74686973206c6f636b426f78206973207374696c6c206c6f636b65640000000081525060200191505060405180910390fd5b3373ffffffffffffffffffffffffffffffffffffffff168160020160009054906101000a900473ffffffffffffffffffffffffffffffffffffffff1673ffffffffffffffffffffffffffffffffffffffff1614611825576040517f08c379a000000000000000000000000000000000000000000000000000000000815260040180806020018281038252602a8152602001806123fd602a913960400191505060405180910390fd5b806005015483111561189f576040517f08c379a000000000000000000000000000000000000000000000000000000000815260040180806020018281038252601b8152602001807f6e6f7420656e6f7567682076616c756520696e206c6f636b426f78000000000081525060200191505060405180910390fd5b6118b68382600501546121a390919063ffffffff16565b81600501819055508173ffffffffffffffffffffffffffffffffffffffff166108fc849081150290604051600060405180830381858888f19350505050158015611904573d6000803e3d6000fd5b507f928a4ac2c922b7bb0e41b5256fded0a7e7919a68827f600378ebf5a523316e1184848460405180806020018481526020018373ffffffffffffffffffffffffffffffffffffffff1673ffffffffffffffffffffffffffffffffffffffff168152602001828103825285818151815260200191508051906020019080838360005b838110156119a1578082015181840152602081019050611986565b50505050905090810190601f1680156119ce5780820380516001836020036101000a031916815260200191505b5094505050505060405180910390a150505050565b600080846040518082805190602001908083835b60208310611a1a57805182526020820191506020810190506020830392506119f7565b6001836020036101000a038019825116818451168082178552505050505050905001915050908152602001604051809103902090506000816000015411611ac9576040517f08c379a00000000000000000000000000000000000000000000000000000000081526004018080602001828103825260168152602001807f6c6f636b426f7820646f6573206e6f742065786973740000000000000000000081525060200191505060405180910390fd5b3373ffffffffffffffffffffffffffffffffffffffff168160010160009054906101000a900473ffffffffffffffffffffffffffffffffffffffff1673ffffffffffffffffffffffffffffffffffffffff1614611b71576040517f08c379a00000000000000000000000000000000000000000000000000000000081526004018080602001828103825260278152602001806124276027913960400191505060405180910390fd5b600081600301541480611b875750438160030154115b80611c0f5750600115156000856040518082805190602001908083835b60208310611bc75780518252602082019150602081019050602083039250611ba4565b6001836020036101000a038019825116818451168082178552505050505050905001915050908152602001604051809103902060080160019054906101000a900460ff161515145b611c64576040517f08c379a000000000000000000000000000000000000000000000000000000000815260040180806020018281038252603681526020018061239b6036913960400191505060405180910390fd5b8060050154831115611cde576040517f08c379a000000000000000000000000000000000000000000000000000000000815260040180806020018281038252601b8152602001807f6e6f7420656e6f7567682076616c756520696e206c6f636b426f78000000000081525060200191505060405180910390fd5b611cf58382600501546121a390919063ffffffff16565b81600501819055508173ffffffffffffffffffffffffffffffffffffffff166108fc849081150290604051600060405180830381858888f19350505050158015611d43573d6000803e3d6000fd5b507f7bea83516f938f33f16134e3f43bf439ea5c2154558df3c43b00723e66d08a4784848460405180806020018481526020018373ffffffffffffffffffffffffffffffffffffffff1673ffffffffffffffffffffffffffffffffffffffff168152602001828103825285818151815260200191508051906020019080838360005b83811015611de0578082015181840152602081019050611dc5565b50505050905090810190601f168015611e0d5780820380516001836020036101000a031916815260200191505b5094505050505060405180910390a150505050565b600080826040518082805190602001908083835b60208310611e595780518252602082019150602081019050602083039250611e36565b6001836020036101000a03801982511681845116808217855250505050505090500191505090815260200160405180910390209050600080836040518082805190602001908083835b60208310611ec55780518252602082019150602081019050602083039250611ea2565b6001836020036101000a03801982511681845116808217855250505050505090500191505090815260200160405180910390206000015411611f6f576040517f08c379a00000000000000000000000000000000000000000000000000000000081526004018080602001828103825260168152602001807f6c6f636b426f7820646f6573206e6f742065786973740000000000000000000081525060200191505060405180910390fd5b611f8634826005015461211b90919063ffffffff16565b81600501819055507f847ee8bf7bde4bd42b4f7665867d6b675c6c9ab6b22c3c0bb6c2e3ab6d715c5582346040518080602001838152602001828103825284818151815260200191508051906020019080838360005b83811015611ff7578082015181840152602081019050611fdc565b50505050905090810190601f1680156120245780820380516001836020036101000a031916815260200191505b50935050505060405180910390a15050565b6000600182511015612093576040517f08c379a000000000000000000000000000000000000000000000000000000000815260040180806020018281038252602c8152602001806123d1602c913960400191505060405180910390fd5b600080600184010151905080915050919050565b60006020820183511015612106576040517f08c379a00000000000000000000000000000000000000000000000000000000081526004018080602001828103825260258152602001806123536025913960400191505060405180910390fd5b60008260208501015190508091505092915050565b600080828401905083811015612199576040517f08c379a000000000000000000000000000000000000000000000000000000000815260040180806020018281038252601b8152602001807f536166654d6174683a206164646974696f6e206f766572666c6f77000000000081525060200191505060405180910390fd5b8091505092915050565b60006121e583836040518060400160405280601e81526020017f536166654d6174683a207375627472616374696f6e206f766572666c6f7700008152506121ed565b905092915050565b600083831115829061229a576040517f08c379a00000000000000000000000000000000000000000000000000000000081526004018080602001828103825283818151815260200191508051906020019080838360005b8381101561225f578082015181840152602081019050612244565b50505050905090810190601f16801561228c5780820380516001836020036101000a031916815260200191505b509250505060405180910390fd5b5060008385039050809150509392505050565b828054600181600116156101000203166002900490600052602060002090601f016020900481019282601f106122ee57805160ff191683800117855561231c565b8280016001018555821561231c579182015b8281111561231b578251825591602001919060010190612300565b5b509050612329919061232d565b5090565b61234f91905b8082111561234b576000816000905550600101612333565b5090565b9056fe6f7574206f6620626f756e6473207768656e20736c6963696e6720746f20627974657333326c6f636b426f782077697468207468697320696420616c72656164792065786973747374686973206c6f636b426f782063616e6e6f74206265207370656e742066726f6d20616674657220697420697320756e6c6f636b65646f7574206f6620626f756e6473207768656e20636f756e74696e672070726f766964656420616e7377657273796f7520617265206e6f7420616c6c6f77656420746f2072656465656d2074686973206c6f636b426f786f6e6c7920746865206f776e65722063616e207370656e642066726f6d2061206c6f636b426f78a2646970667358221220ce5332a12a9eb00b34aaa413237eaafefda2fa65d039d557dd686628b07a6ba364736f6c63430006000033",
  "source": "// SPDX-License-Identifier: MIT\npragma solidity >=0.4.21 <=0.7.0;\n\nimport \"@openzeppelin/contracts/math/SafeMath.sol\";\n\n/// @author Chris Martin\n/// @title A mechanism for locking eth behind m-of-n security questions\ncontract EtherLockBox {\n\n  using SafeMath for uint256;\n\n  struct LockBox {\n    uint createdAt;\n    address owner;\n    address redeemableBy;\n    uint unlockedAt;\n    uint unlockingPeriod;\n    uint value;\n    bytes hints;\n    bytes answers;\n    uint8 numAnswersRequired;\n    bool spendableOnceUnlocked;\n  }\n\n  event Created(bytes lockBoxId);\n  event ValueAdded(bytes lockBoxId, uint amount);\n  event SpentFrom(bytes lockBoxId, uint amount, address to);\n  event Unlocked(bytes lockBoxId);\n  event Redeemed(bytes lockBoxId, uint amount, address to);\n\n  mapping (bytes => LockBox) lockBoxes;\n\n  /// number of lockboxes owned by a given address\n  mapping (address => uint) lockBoxCounts;\n  /// mapping of lockBox count to lockBox id for a given address\n  mapping (address => mapping(uint => bytes)) ownedLockBoxIds;\n\n  /// Create a new lockBox\n  /// @param lockBoxId id of the lockBox\n  /// @param hints serialised lockBox hints\n  /// hint serialisation form is\n  /// <numberOfHints(1byte)><sizeOfHint1(2 bytes)><hint1>...<sizeOfHintN(2 bytes)><hintN>\n  /// @param answers serialised lockBox answers\n  /// answer serialisation form is\n  /// <numberOfAnswers(1byte)><answer1(32 bytes)>...<answerN(32 bytes)>\n  /// @param numAnswersRequired number of correct answers required to unlock this lockBox\n  /// @param unlockingPeriod number of blocks before redeemer can claim unlocked value\n  /// @dev creates a new lockBox\n  function createLockBox(\n    bytes memory lockBoxId,\n    bytes memory hints,\n    bytes memory answers,\n    uint8 numAnswersRequired,\n    uint unlockingPeriod,\n    bool spendableOnceUnlocked\n  ) public payable {\n    LockBox storage lockBox = lockBoxes[lockBoxId];\n    require(lockBox.createdAt == 0, \"lockBox with this id already exists\");\n    lockBox.createdAt = block.number;\n    lockBox.owner = msg.sender;\n    lockBox.value = msg.value;\n    lockBox.hints = hints;\n    lockBox.answers = answers;\n    lockBox.numAnswersRequired = numAnswersRequired;\n    lockBox.unlockingPeriod = unlockingPeriod;\n    lockBox.spendableOnceUnlocked = spendableOnceUnlocked;\n    uint currentOwnedLockBoxCount = lockBoxCounts[msg.sender];\n    ownedLockBoxIds[msg.sender][currentOwnedLockBoxCount] = lockBoxId;\n    lockBoxCounts[msg.sender] = currentOwnedLockBoxCount.add(1);\n    emit Created(lockBoxId);\n  }\n\n  /// Get a lockBox by id\n  /// @param lockBoxId id of the lockBox\n  /// @dev creates a new lockBox\n  function getLockBox(bytes memory lockBoxId) public view returns (\n    uint createdAt,\n    address owner,\n    address redeemableBy,\n    uint unlockedAt,\n    uint unlockingPeriod,\n    uint value,\n    bytes memory hints,\n    bytes memory answers,\n    uint8 numAnswersRequired,\n    bool spendableOnceUnlocked\n  ) {\n    LockBox storage lockBox = lockBoxes[lockBoxId];\n    return (\n      lockBox.createdAt,\n      lockBox.owner,\n      lockBox.redeemableBy,\n      lockBox.unlockedAt,\n      lockBox.unlockingPeriod,\n      lockBox.value,\n      lockBox.hints,\n      lockBox.answers,\n      lockBox.numAnswersRequired,\n      lockBox.spendableOnceUnlocked\n    );\n  }\n\n  /// Get the number of lockboxes owned by msg.sender\n  /// @dev returns the number of lockBoxes where the sender is the owner\n  function getOwnedLockBoxesCount() public view returns (uint) {\n    return lockBoxCounts[msg.sender];\n  }\n\n  /// Get an owned lockBox Id by index in ownedLockBoxes mapping\n  /// @dev returns the id of a lockBox given its index in the ownedLockBoxes mapping\n  function getOwnedLockBoxId(uint index) public view returns (bytes memory) {\n    return ownedLockBoxIds[msg.sender][index];\n  }\n\n  /// Add value to an existing lockBox\n  /// @param lockBoxId id of the lockBox\n  /// @dev adds the msg value to the value of the lockBox\n  function addValue(bytes memory lockBoxId) public payable {\n    LockBox storage lockBox = lockBoxes[lockBoxId];\n    require(lockBoxes[lockBoxId].createdAt > 0, \"lockBox does not exist\");\n    lockBox.value = lockBox.value.add(msg.value);\n    emit ValueAdded(lockBoxId, msg.value);\n  }\n\n  /// Spend from the lockBox as the owner, sending the specified value to a chosen address\n  /// @param lockBoxId id of the lockBox\n  /// @param amount amount to deduct from lockBox\n  /// @param to id of the lockBox\n  /// @dev bypass redemption and immediately send the specified value to a chosen address\n  function spendFromLockBox(bytes memory lockBoxId, uint amount, address payable to) public {\n    LockBox storage lockBox = lockBoxes[lockBoxId];\n    require(lockBox.createdAt > 0, \"lockBox does not exist\");\n    require(lockBox.owner == msg.sender, \"only the owner can spend from a lockBox\");\n    require((lockBox.unlockedAt == 0 || lockBox.unlockedAt > block.number) || lockBoxes[lockBoxId].spendableOnceUnlocked == true, \"this lockBox cannot be spent from after it is unlocked\");\n    require(amount <= lockBox.value, \"not enough value in lockBox\");\n    lockBox.value = lockBox.value.sub(amount);\n    to.transfer(amount);\n    emit SpentFrom(lockBoxId, amount, to);\n  }\n\n  /// Unlock the lockBox, setting the msg sender as the redeemer\n  /// @param lockBoxId id of the lockBox\n  /// @param answers serialised solutions to answer hash(s)\n  /// @dev given the correct hash inputs for the answers, sets the sender as the redeemer of the lockBox\n  function unlockLockBox(bytes memory lockBoxId, bytes memory answers) public {\n    LockBox storage lockBox = lockBoxes[lockBoxId];\n    require(lockBoxes[lockBoxId].createdAt > 0, \"lockBox does not exist\");\n    require(lockBoxes[lockBoxId].unlockedAt == 0, \"lockBox is already unlocked\");\n    // first byte specifies how many answers there are\n    uint numAnswersCorrect = 0;\n    uint8 numTotalAnswers = bytesToUint8(lockBox.answers);\n    for (uint8 i = 0; i < numTotalAnswers; i++) {\n      bytes32 expectedAnswer = bytesToBytes32(lockBox.answers, i * 32 + 1);\n      bytes32 providedAnswer = keccak256(abi.encodePacked(bytesToBytes32(answers, i * 32)));\n      if(expectedAnswer == providedAnswer) {\n        numAnswersCorrect++;\n      }\n    }\n    require(numAnswersCorrect >= lockBox.numAnswersRequired, \"not enough correct answers\");\n    lockBox.redeemableBy = msg.sender;\n    lockBox.unlockedAt = block.number.add(lockBox.unlockingPeriod);\n    emit Unlocked(lockBoxId);\n  }\n\n  /// Redeem a specified amount from an unlocked lockBox\n  /// @param lockBoxId id of the lockBox\n  /// @param amount amount to redeem from lockBox\n  /// @param to address to redeem value to\n  /// @dev given that the lockBox is redeemable by the msg sender, sends specified amount to specified address\n  function redeemLockBox(bytes memory lockBoxId, uint amount, address payable to) public {\n    LockBox storage lockBox = lockBoxes[lockBoxId];\n    require(lockBox.createdAt > 0, \"lockBox does not exist\");\n    require(lockBox.unlockedAt > 0 && lockBox.unlockedAt <= block.number, \"this lockBox is still locked\");\n    require(lockBox.redeemableBy == msg.sender, \"you are not allowed to redeem this lockBox\");\n    require(amount <= lockBox.value, \"not enough value in lockBox\");\n    lockBox.value = lockBox.value.sub(amount);\n    to.transfer(amount);\n    emit Redeemed(lockBoxId, amount, to);\n  }\n\n  /// util function for converting first byte of byte array to uint8\n  /// @param _bytes byte array to slice\n  /// @dev given a byte array, convert the first element to a uint8 value\n  function bytesToUint8(bytes memory _bytes) internal pure returns (uint8) {\n    require(_bytes.length >= 1, \"out of bounds when counting provided answers\");\n    uint8 tempUint;\n\n    assembly {\n        tempUint := mload(add(add(_bytes, 0x1), 0))\n    }\n\n    return tempUint;\n  }\n\n  /// util function for slicing a bytes array and converting to bytes32\n  /// @param _bytes byte array to slice\n  /// @param _start start index of slice\n  /// @dev given a byte array, convert a slice starting at specified index to bytes32\n  function bytesToBytes32(bytes memory _bytes, uint256 _start) internal pure returns (bytes32) {\n    require(_bytes.length >= (_start + 32), \"out of bounds when slicing to bytes32\");\n    bytes32 tempBytes32;\n\n    assembly {\n        tempBytes32 := mload(add(add(_bytes, 0x20), _start))\n    }\n\n    return tempBytes32;\n  }\n}\n",
  "sourcePath": "/home/chris/crunchy/etherlockbox/contracts/EtherLockBox.sol",
  "compiler": {
    "name": "solc",
    "version": "0.6.0+commit.26b70077.Emscripten.clang"
  },
  "schemaVersion": "3.2.3",
  "updatedAt": "2021-05-21T12:14:16.286Z",
  "networkType": "ethereum",
  "devdoc": {
    "author": "Chris Martin",
    "methods": {
      "addValue(bytes)": {
        "details": "adds the msg value to the value of the lockBox",
        "params": {
          "lockBoxId": "id of the lockBox"
        }
      },
      "createLockBox(bytes,bytes,bytes,uint8,uint256,bool)": {
        "details": "creates a new lockBox",
        "params": {
          "answers": "serialised lockBox answers answer serialisation form is <numberOfAnswers(1byte)><answer1(32 bytes)>...<answerN(32 bytes)>",
          "hints": "serialised lockBox hints hint serialisation form is <numberOfHints(1byte)><sizeOfHint1(2 bytes)><hint1>...<sizeOfHintN(2 bytes)><hintN>",
          "lockBoxId": "id of the lockBox",
          "numAnswersRequired": "number of correct answers required to unlock this lockBox",
          "unlockingPeriod": "number of blocks before redeemer can claim unlocked value"
        }
      },
      "getLockBox(bytes)": {
        "details": "creates a new lockBox",
        "params": {
          "lockBoxId": "id of the lockBox"
        }
      },
      "getOwnedLockBoxId(uint256)": {
        "details": "returns the id of a lockBox given its index in the ownedLockBoxes mapping"
      },
      "getOwnedLockBoxesCount()": {
        "details": "returns the number of lockBoxes where the sender is the owner"
      },
      "redeemLockBox(bytes,uint256,address)": {
        "details": "given that the lockBox is redeemable by the msg sender, sends specified amount to specified address",
        "params": {
          "amount": "amount to redeem from lockBox",
          "lockBoxId": "id of the lockBox",
          "to": "address to redeem value to"
        }
      },
      "spendFromLockBox(bytes,uint256,address)": {
        "details": "bypass redemption and immediately send the specified value to a chosen address",
        "params": {
          "amount": "amount to deduct from lockBox",
          "lockBoxId": "id of the lockBox",
          "to": "id of the lockBox"
        }
      },
      "unlockLockBox(bytes,bytes)": {
        "details": "given the correct hash inputs for the answers, sets the sender as the redeemer of the lockBox",
        "params": {
          "answers": "serialised solutions to answer hash(s)",
          "lockBoxId": "id of the lockBox"
        }
      }
    },
    "title": "A mechanism for locking eth behind m-of-n security questions"
  },
  "userdoc": {
    "methods": {
      "addValue(bytes)": {
        "notice": "Add value to an existing lockBox"
      },
      "createLockBox(bytes,bytes,bytes,uint8,uint256,bool)": {
        "notice": "Create a new lockBox"
      },
      "getLockBox(bytes)": {
        "notice": "Get a lockBox by id"
      },
      "getOwnedLockBoxId(uint256)": {
        "notice": "Get an owned lockBox Id by index in ownedLockBoxes mapping"
      },
      "getOwnedLockBoxesCount()": {
        "notice": "Get the number of lockboxes owned by msg.sender"
      },
      "redeemLockBox(bytes,uint256,address)": {
        "notice": "Redeem a specified amount from an unlocked lockBox"
      },
      "spendFromLockBox(bytes,uint256,address)": {
        "notice": "Spend from the lockBox as the owner, sending the specified value to a chosen address"
      },
      "unlockLockBox(bytes,bytes)": {
        "notice": "Unlock the lockBox, setting the msg sender as the redeemer"
      }
    }
  }
}